{
  "contractName": "DidForDases",
  "abi": [
    {
      "inputs": [],
      "stateMutability": "nonpayable",
      "type": "constructor"
    },
    {
      "anonymous": false,
      "inputs": [
        {
          "indexed": true,
          "internalType": "address",
          "name": "previousOwner",
          "type": "address"
        },
        {
          "indexed": true,
          "internalType": "address",
          "name": "newOwner",
          "type": "address"
        }
      ],
      "name": "OwnershipTransferred",
      "type": "event"
    },
    {
      "anonymous": false,
      "inputs": [
        {
          "indexed": false,
          "internalType": "string",
          "name": "message",
          "type": "string"
        },
        {
          "indexed": false,
          "internalType": "address",
          "name": "sender",
          "type": "address"
        }
      ],
      "name": "Trace",
      "type": "event"
    },
    {
      "inputs": [],
      "name": "dasesAdmin",
      "outputs": [
        {
          "internalType": "address",
          "name": "",
          "type": "address"
        }
      ],
      "stateMutability": "view",
      "type": "function",
      "constant": true
    },
    {
      "inputs": [
        {
          "internalType": "uint256",
          "name": "",
          "type": "uint256"
        }
      ],
      "name": "listOfEntities",
      "outputs": [
        {
          "internalType": "address",
          "name": "publicKey",
          "type": "address"
        },
        {
          "internalType": "string",
          "name": "entityName",
          "type": "string"
        },
        {
          "internalType": "string",
          "name": "emailContact",
          "type": "string"
        }
      ],
      "stateMutability": "view",
      "type": "function",
      "constant": true
    },
    {
      "inputs": [],
      "name": "maxEntities",
      "outputs": [
        {
          "internalType": "uint256",
          "name": "",
          "type": "uint256"
        }
      ],
      "stateMutability": "view",
      "type": "function",
      "constant": true
    },
    {
      "inputs": [],
      "name": "owner",
      "outputs": [
        {
          "internalType": "address",
          "name": "",
          "type": "address"
        }
      ],
      "stateMutability": "view",
      "type": "function",
      "constant": true
    },
    {
      "inputs": [],
      "name": "renounceOwnership",
      "outputs": [],
      "stateMutability": "nonpayable",
      "type": "function"
    },
    {
      "inputs": [
        {
          "internalType": "address",
          "name": "newOwner",
          "type": "address"
        }
      ],
      "name": "transferOwnership",
      "outputs": [],
      "stateMutability": "nonpayable",
      "type": "function"
    },
    {
      "inputs": [
        {
          "internalType": "string",
          "name": "_entityName",
          "type": "string"
        },
        {
          "internalType": "string",
          "name": "_emailContact",
          "type": "string"
        }
      ],
      "name": "idAssociation",
      "outputs": [],
      "stateMutability": "nonpayable",
      "type": "function"
    },
    {
      "inputs": [
        {
          "internalType": "string",
          "name": "_entityName",
          "type": "string"
        },
        {
          "internalType": "string",
          "name": "_emailContact",
          "type": "string"
        }
      ],
      "name": "idUpdate",
      "outputs": [],
      "stateMutability": "nonpayable",
      "type": "function"
    },
    {
      "inputs": [],
      "name": "idDelete",
      "outputs": [],
      "stateMutability": "nonpayable",
      "type": "function"
    },
    {
      "inputs": [],
      "name": "completeCleaning",
      "outputs": [],
      "stateMutability": "nonpayable",
      "type": "function"
    },
    {
      "inputs": [
        {
          "internalType": "address",
          "name": "_newAdmin",
          "type": "address"
        }
      ],
      "name": "replaceAdmin",
      "outputs": [],
      "stateMutability": "nonpayable",
      "type": "function"
    },
    {
      "inputs": [
        {
          "internalType": "uint256",
          "name": "_maxEntities",
          "type": "uint256"
        }
      ],
      "name": "changeNumberEntities",
      "outputs": [],
      "stateMutability": "nonpayable",
      "type": "function"
    },
    {
      "inputs": [],
      "name": "getAssociatedEntitiesList",
      "outputs": [
        {
          "components": [
            {
              "internalType": "address",
              "name": "publicKey",
              "type": "address"
            },
            {
              "internalType": "string",
              "name": "entityName",
              "type": "string"
            },
            {
              "internalType": "string",
              "name": "emailContact",
              "type": "string"
            }
          ],
          "internalType": "struct DidForDases.Entities[]",
          "name": "",
          "type": "tuple[]"
        }
      ],
      "stateMutability": "view",
      "type": "function",
      "constant": true
    }
  ],
  "bytecode": "0x60806040523480156200001157600080fd5b506200003262000026620001f060201b60201c565b620001f860201b60201c565b33600260006101000a81548173ffffffffffffffffffffffffffffffffffffffff021916908373ffffffffffffffffffffffffffffffffffffffff16021790555060016040518060600160405280600260009054906101000a900473ffffffffffffffffffffffffffffffffffffffff1673ffffffffffffffffffffffffffffffffffffffff1681526020016040518060400160405280601381526020017f44415345532041646d696e6973747261746f720000000000000000000000000081525081526020016040518060400160405280601181526020017f636f6e746163744064617365732e636f6d000000000000000000000000000000815250815250908060018154018082558091505060019003906000526020600020906003020160009091909190915060008201518160000160006101000a81548173ffffffffffffffffffffffffffffffffffffffff021916908373ffffffffffffffffffffffffffffffffffffffff1602179055506020820151816001019080519060200190620001c0929190620002bc565b506040820151816002019080519060200190620001df929190620002bc565b505050600a600381905550620003d1565b600033905090565b60008060009054906101000a900473ffffffffffffffffffffffffffffffffffffffff169050816000806101000a81548173ffffffffffffffffffffffffffffffffffffffff021916908373ffffffffffffffffffffffffffffffffffffffff1602179055508173ffffffffffffffffffffffffffffffffffffffff168173ffffffffffffffffffffffffffffffffffffffff167f8be0079c531659141344cd1fd0a4f28419497f9722a3daafe3b4186f6b6457e060405160405180910390a35050565b828054620002ca906200039b565b90600052602060002090601f016020900481019282620002ee57600085556200033a565b82601f106200030957805160ff19168380011785556200033a565b828001600101855582156200033a579182015b82811115620003395782518255916020019190600101906200031c565b5b5090506200034991906200034d565b5090565b5b80821115620003685760008160009055506001016200034e565b5090565b7f4e487b7100000000000000000000000000000000000000000000000000000000600052602260045260246000fd5b60006002820490506001821680620003b457607f821691505b60208210811415620003cb57620003ca6200036c565b5b50919050565b611cea80620003e16000396000f3fe608060405234801561001057600080fd5b50600436106100cf5760003560e01c8063715018a61161008c578063b0d92c6a11610066578063b0d92c6a146101c8578063c4f4face146101e6578063e43baaba14610202578063f2fde38b1461020c576100cf565b8063715018a6146101965780638da5cb5b146101a0578063932e9e35146101be576100cf565b80630112d855146100d45780630e7ce7ab146101065780630e87173b1461012457806312fa7e99146101405780634c1e14731461015e5780635f0a482d1461017a575b600080fd5b6100ee60048036038101906100e9919061135c565b610228565b6040516100fd93929190611463565b60405180910390f35b61010e610392565b60405161011b91906114b7565b60405180910390f35b61013e6004803603810190610139919061135c565b610398565b005b6101486103a2565b60405161015591906114d2565b60405180910390f35b61017860048036038101906101739190611622565b6103c8565b005b610194600480360381019061018f9190611622565b6104e2565b005b61019e610721565b005b6101a86107a9565b6040516101b591906114d2565b60405180910390f35b6101c66107d2565b005b6101d06109c9565b6040516101dd919061180c565b60405180910390f35b61020060048036038101906101fb919061185a565b610ba2565b005b61020a610cf2565b005b6102266004803603810190610221919061185a565b610f5c565b005b6001818154811061023857600080fd5b90600052602060002090600302016000915090508060000160009054906101000a900473ffffffffffffffffffffffffffffffffffffffff1690806001018054610281906118b6565b80601f01602080910402602001604051908101604052809291908181526020018280546102ad906118b6565b80156102fa5780601f106102cf576101008083540402835291602001916102fa565b820191906000526020600020905b8154815290600101906020018083116102dd57829003601f168201915b50505050509080600201805461030f906118b6565b80601f016020809104026020016040519081016040528092919081815260200182805461033b906118b6565b80156103885780601f1061035d57610100808354040283529160200191610388565b820191906000526020600020905b81548152906001019060200180831161036b57829003601f168201915b5050505050905083565b60035481565b8060038190555050565b600260009054906101000a900473ffffffffffffffffffffffffffffffffffffffff1681565b60005b6001805490508110156104dd573373ffffffffffffffffffffffffffffffffffffffff1660018281548110610403576104026118e8565b5b906000526020600020906003020160000160009054906101000a900473ffffffffffffffffffffffffffffffffffffffff1673ffffffffffffffffffffffffffffffffffffffff1614156104ca578260018281548110610466576104656118e8565b5b9060005260206000209060030201600101908051906020019061048a929190611120565b5081600182815481106104a05761049f6118e8565b5b906000526020600020906003020160020190805190602001906104c4929190611120565b506104dd565b80806104d590611946565b9150506103cb565b505050565b60005b6001805490508110156105bd573373ffffffffffffffffffffffffffffffffffffffff166001828154811061051d5761051c6118e8565b5b906000526020600020906003020160000160009054906101000a900473ffffffffffffffffffffffffffffffffffffffff1673ffffffffffffffffffffffffffffffffffffffff161461056f576105aa565b6040517f08c379a00000000000000000000000000000000000000000000000000000000081526004016105a190611a01565b60405180910390fd5b80806105b590611946565b9150506104e5565b507fcb1789f2cd8d1345e9c4e9e0f15a5d2a0083c6b7358cbb5e2870a8f875201535336040516105ed9190611a93565b60405180910390a16003546001805490501061063e576040517f08c379a000000000000000000000000000000000000000000000000000000000815260040161063590611b33565b60405180910390fd5b600160405180606001604052803373ffffffffffffffffffffffffffffffffffffffff16815260200184815260200183815250908060018154018082558091505060019003906000526020600020906003020160009091909190915060008201518160000160006101000a81548173ffffffffffffffffffffffffffffffffffffffff021916908373ffffffffffffffffffffffffffffffffffffffff16021790555060208201518160010190805190602001906106fd929190611120565b50604082015181600201908051906020019061071a929190611120565b5050505050565b610729611054565b73ffffffffffffffffffffffffffffffffffffffff166107476107a9565b73ffffffffffffffffffffffffffffffffffffffff161461079d576040517f08c379a000000000000000000000000000000000000000000000000000000000815260040161079490611b9f565b60405180910390fd5b6107a7600061105c565b565b60008060009054906101000a900473ffffffffffffffffffffffffffffffffffffffff16905090565b6107da611054565b73ffffffffffffffffffffffffffffffffffffffff166107f86107a9565b73ffffffffffffffffffffffffffffffffffffffff161461084e576040517f08c379a000000000000000000000000000000000000000000000000000000000815260040161084590611b9f565b60405180910390fd5b6001600061085c91906111a6565b60016040518060600160405280600260009054906101000a900473ffffffffffffffffffffffffffffffffffffffff1673ffffffffffffffffffffffffffffffffffffffff1681526020016040518060400160405280601381526020017f44415345532041646d696e6973747261746f720000000000000000000000000081525081526020016040518060400160405280601181526020017f636f6e746163744064617365732e636f6d000000000000000000000000000000815250815250908060018154018082558091505060019003906000526020600020906003020160009091909190915060008201518160000160006101000a81548173ffffffffffffffffffffffffffffffffffffffff021916908373ffffffffffffffffffffffffffffffffffffffff16021790555060208201518160010190805190602001906109a7929190611120565b5060408201518160020190805190602001906109c4929190611120565b505050565b60606001805480602002602001604051908101604052809291908181526020016000905b82821015610b9957838290600052602060002090600302016040518060600160405290816000820160009054906101000a900473ffffffffffffffffffffffffffffffffffffffff1673ffffffffffffffffffffffffffffffffffffffff1673ffffffffffffffffffffffffffffffffffffffff168152602001600182018054610a76906118b6565b80601f0160208091040260200160405190810160405280929190818152602001828054610aa2906118b6565b8015610aef5780601f10610ac457610100808354040283529160200191610aef565b820191906000526020600020905b815481529060010190602001808311610ad257829003601f168201915b50505050508152602001600282018054610b08906118b6565b80601f0160208091040260200160405190810160405280929190818152602001828054610b34906118b6565b8015610b815780601f10610b5657610100808354040283529160200191610b81565b820191906000526020600020905b815481529060010190602001808311610b6457829003601f168201915b505050505081525050815260200190600101906109ed565b50505050905090565b610baa611054565b73ffffffffffffffffffffffffffffffffffffffff16610bc86107a9565b73ffffffffffffffffffffffffffffffffffffffff1614610c1e576040517f08c379a0000000000000000000000000000000000000000000000000000000008152600401610c1590611b9f565b60405180910390fd5b80600260006101000a81548173ffffffffffffffffffffffffffffffffffffffff021916908373ffffffffffffffffffffffffffffffffffffffff160217905550610c6881610f5c565b600260009054906101000a900473ffffffffffffffffffffffffffffffffffffffff166001600081548110610ca057610c9f6118e8565b5b906000526020600020906003020160000160006101000a81548173ffffffffffffffffffffffffffffffffffffffff021916908373ffffffffffffffffffffffffffffffffffffffff16021790555050565b600260009054906101000a900473ffffffffffffffffffffffffffffffffffffffff1673ffffffffffffffffffffffffffffffffffffffff163373ffffffffffffffffffffffffffffffffffffffff161415610d4d57600080fd5b60005b600180549050811015610f59573373ffffffffffffffffffffffffffffffffffffffff1660018281548110610d8857610d876118e8565b5b906000526020600020906003020160000160009054906101000a900473ffffffffffffffffffffffffffffffffffffffff1673ffffffffffffffffffffffffffffffffffffffff161415610f46576001808080549050610de89190611bbf565b81548110610df957610df86118e8565b5b906000526020600020906003020160018281548110610e1b57610e1a6118e8565b5b90600052602060002090600302016000820160009054906101000a900473ffffffffffffffffffffffffffffffffffffffff168160000160006101000a81548173ffffffffffffffffffffffffffffffffffffffff021916908373ffffffffffffffffffffffffffffffffffffffff1602179055506001820181600101908054610ea4906118b6565b610eaf9291906111ca565b506002820181600201908054610ec4906118b6565b610ecf9291906111ca565b509050506001805480610ee557610ee4611bf3565b5b6001900381819060005260206000209060030201600080820160006101000a81549073ffffffffffffffffffffffffffffffffffffffff0219169055600182016000610f319190611257565b600282016000610f419190611257565b505090555b8080610f5190611946565b915050610d50565b50565b610f64611054565b73ffffffffffffffffffffffffffffffffffffffff16610f826107a9565b73ffffffffffffffffffffffffffffffffffffffff1614610fd8576040517f08c379a0000000000000000000000000000000000000000000000000000000008152600401610fcf90611b9f565b60405180910390fd5b600073ffffffffffffffffffffffffffffffffffffffff168173ffffffffffffffffffffffffffffffffffffffff161415611048576040517f08c379a000000000000000000000000000000000000000000000000000000000815260040161103f90611c94565b60405180910390fd5b6110518161105c565b50565b600033905090565b60008060009054906101000a900473ffffffffffffffffffffffffffffffffffffffff169050816000806101000a81548173ffffffffffffffffffffffffffffffffffffffff021916908373ffffffffffffffffffffffffffffffffffffffff1602179055508173ffffffffffffffffffffffffffffffffffffffff168173ffffffffffffffffffffffffffffffffffffffff167f8be0079c531659141344cd1fd0a4f28419497f9722a3daafe3b4186f6b6457e060405160405180910390a35050565b82805461112c906118b6565b90600052602060002090601f01602090048101928261114e5760008555611195565b82601f1061116757805160ff1916838001178555611195565b82800160010185558215611195579182015b82811115611194578251825591602001919060010190611179565b5b5090506111a29190611297565b5090565b50805460008255600302906000526020600020908101906111c791906112b4565b50565b8280546111d6906118b6565b90600052602060002090601f0160209004810192826111f85760008555611246565b82601f106112095780548555611246565b8280016001018555821561124657600052602060002091601f016020900482015b8281111561124557825482559160010191906001019061122a565b5b5090506112539190611297565b5090565b508054611263906118b6565b6000825580601f106112755750611294565b601f0160209004906000526020600020908101906112939190611297565b5b50565b5b808211156112b0576000816000905550600101611298565b5090565b5b8082111561130e57600080820160006101000a81549073ffffffffffffffffffffffffffffffffffffffff02191690556001820160006112f59190611257565b6002820160006113059190611257565b506003016112b5565b5090565b6000604051905090565b600080fd5b600080fd5b6000819050919050565b61133981611326565b811461134457600080fd5b50565b60008135905061135681611330565b92915050565b6000602082840312156113725761137161131c565b5b600061138084828501611347565b91505092915050565b600073ffffffffffffffffffffffffffffffffffffffff82169050919050565b60006113b482611389565b9050919050565b6113c4816113a9565b82525050565b600081519050919050565b600082825260208201905092915050565b60005b838110156114045780820151818401526020810190506113e9565b83811115611413576000848401525b50505050565b6000601f19601f8301169050919050565b6000611435826113ca565b61143f81856113d5565b935061144f8185602086016113e6565b61145881611419565b840191505092915050565b600060608201905061147860008301866113bb565b818103602083015261148a818561142a565b9050818103604083015261149e818461142a565b9050949350505050565b6114b181611326565b82525050565b60006020820190506114cc60008301846114a8565b92915050565b60006020820190506114e760008301846113bb565b92915050565b600080fd5b600080fd5b7f4e487b7100000000000000000000000000000000000000000000000000000000600052604160045260246000fd5b61152f82611419565b810181811067ffffffffffffffff8211171561154e5761154d6114f7565b5b80604052505050565b6000611561611312565b905061156d8282611526565b919050565b600067ffffffffffffffff82111561158d5761158c6114f7565b5b61159682611419565b9050602081019050919050565b82818337600083830152505050565b60006115c56115c084611572565b611557565b9050828152602081018484840111156115e1576115e06114f2565b5b6115ec8482856115a3565b509392505050565b600082601f830112611609576116086114ed565b5b81356116198482602086016115b2565b91505092915050565b600080604083850312156116395761163861131c565b5b600083013567ffffffffffffffff81111561165757611656611321565b5b611663858286016115f4565b925050602083013567ffffffffffffffff81111561168457611683611321565b5b611690858286016115f4565b9150509250929050565b600081519050919050565b600082825260208201905092915050565b6000819050602082019050919050565b6116cf816113a9565b82525050565b600082825260208201905092915050565b60006116f1826113ca565b6116fb81856116d5565b935061170b8185602086016113e6565b61171481611419565b840191505092915050565b600060608301600083015161173760008601826116c6565b506020830151848203602086015261174f82826116e6565b9150506040830151848203604086015261176982826116e6565b9150508091505092915050565b6000611782838361171f565b905092915050565b6000602082019050919050565b60006117a28261169a565b6117ac81856116a5565b9350836020820285016117be856116b6565b8060005b858110156117fa57848403895281516117db8582611776565b94506117e68361178a565b925060208a019950506001810190506117c2565b50829750879550505050505092915050565b600060208201905081810360008301526118268184611797565b905092915050565b611837816113a9565b811461184257600080fd5b50565b6000813590506118548161182e565b92915050565b6000602082840312156118705761186f61131c565b5b600061187e84828501611845565b91505092915050565b7f4e487b7100000000000000000000000000000000000000000000000000000000600052602260045260246000fd5b600060028204905060018216806118ce57607f821691505b602082108114156118e2576118e1611887565b5b50919050565b7f4e487b7100000000000000000000000000000000000000000000000000000000600052603260045260246000fd5b7f4e487b7100000000000000000000000000000000000000000000000000000000600052601160045260246000fd5b600061195182611326565b91507fffffffffffffffffffffffffffffffffffffffffffffffffffffffffffffffff82141561198457611983611917565b5b600182019050919050565b7f596f7572206164647265737320697320616c7265616479206578697374696e6760008201527f20696e20746865206c697374206f6620456e7469746965730000000000000000602082015250565b60006119eb6038836113d5565b91506119f68261198f565b604082019050919050565b60006020820190508181036000830152611a1a816119de565b9050919050565b7f5468652061646472657373206973206e6f74206578697374696e6720696e207460008201527f6865206c697374206f6620456e74697469657300000000000000000000000000602082015250565b6000611a7d6033836113d5565b9150611a8882611a21565b604082019050919050565b60006040820190508181036000830152611aac81611a70565b9050611abb60208301846113bb565b92915050565b7f546865206d6178696d756d206e756d626572206f6620656e746974696573206960008201527f7320726561636865640000000000000000000000000000000000000000000000602082015250565b6000611b1d6029836113d5565b9150611b2882611ac1565b604082019050919050565b60006020820190508181036000830152611b4c81611b10565b9050919050565b7f4f776e61626c653a2063616c6c6572206973206e6f7420746865206f776e6572600082015250565b6000611b896020836113d5565b9150611b9482611b53565b602082019050919050565b60006020820190508181036000830152611bb881611b7c565b9050919050565b6000611bca82611326565b9150611bd583611326565b925082821015611be857611be7611917565b5b828203905092915050565b7f4e487b7100000000000000000000000000000000000000000000000000000000600052603160045260246000fd5b7f4f776e61626c653a206e6577206f776e657220697320746865207a65726f206160008201527f6464726573730000000000000000000000000000000000000000000000000000602082015250565b6000611c7e6026836113d5565b9150611c8982611c22565b604082019050919050565b60006020820190508181036000830152611cad81611c71565b905091905056fea2646970667358221220838112af7f9a7a451d5611e23b2cbcb612f96c3db476eb5a8d8d3345223d4a5f64736f6c634300080a0033",
  "immutableReferences": {},
  "source": "// SPDX-License-Identifier: MIT\npragma solidity 0.8.10;\n\nimport \"@openzeppelin/contracts/access/Ownable.sol\";\n\n/// @title An association between public address and entity name/entity contact\n/// @author Perrin Grandne\n/// @notice This contract allows to add a row in an array with the address of the sender, his name and his email\n\n//The contract inherits from Ownable module of Open Zeppelin\ncontract DidForDases is Ownable {\n    //This declares a structure type, which will be used as structure of the array with the list of entities\n    struct Entities {\n        address publicKey; // It is the address of the entity who wants to be added\n        string entityName; // It is the name of the entity\n        string emailContact; // It is a contact address of the Entity\n    }\n\n    Entities[] public listOfEntities; //Array which list these entites, based on Entities struct\n\n    address public dasesAdmin; //Owner of the smart contract and manager of the list of entities\n    //It is duplicated with owner from Ownable (but I prefer this name...)\n\n    uint public maxEntities; // Maximum number of Entities in the list\n\n    event Trace(string message, address sender); //Event to trace the interactions\n\n    //Store the address of the creator of the contract and fill in the array with this address as Admin of Dases\n    constructor() {\n        dasesAdmin = msg.sender;\n        listOfEntities.push(\n            Entities(dasesAdmin, \"DASES Administrator\", \"contact@dases.com\")\n        );\n        //Fix the maximum numbr of Entities in the list\n        maxEntities = 10;\n    }\n\n    //Verify that the applicant is not the admin of Dases (to avoid a deletion by mistake)\n    modifier notTheAdmin() {\n        require(msg.sender != dasesAdmin);\n        _;\n    }\n\n    //Verify that the applicant is not already in the list to avoid duplicate entities\n    modifier notAlreadyExisting() {\n        //Read all the array to verify that the entity is not already existing\n        for (uint256 i = 0; i < listOfEntities.length; i++) {\n            if (listOfEntities[i].publicKey != msg.sender) {} else {\n                //If the address is already existing, the transaction is reverted\n                revert(\n                    \"Your address is already existing in the list of Entities\"\n                );\n            }\n        }\n        emit Trace('The address is not existing in the list of Entities', msg.sender);\n        _;\n    }\n\n    //Associate the address of the applicant to his entity name and his email contact\n    //This assocatiion is stored in the Array listOfEntities\n    function idAssociation(\n        string memory _entityName,\n        string memory _emailContact\n    ) public notAlreadyExisting {\n        //Verify that the number of Entities is not at the limit\n        require(listOfEntities.length<maxEntities,'The maximum number of entities is reached'); \n        //Adding the new entity\n        listOfEntities.push(Entities(msg.sender, _entityName, _emailContact));\n    }\n\n    //Update the entity name and the email contact of applicant into the array ListOfEntities\n    function idUpdate(string memory _entityName, string memory _emailContact)\n        public\n    {\n        //Search the entity address and update name and contact when the address is found\n        for (uint256 i = 0; i < listOfEntities.length; i++) {\n            if (listOfEntities[i].publicKey == msg.sender) {\n                listOfEntities[i].entityName = _entityName;\n                listOfEntities[i].emailContact = _emailContact;\n                break;\n            }\n        }\n    }\n\n    //Delete the row of the applicant into the array ListOfEntities\n    function idDelete() public notTheAdmin {\n        for (uint256 i = 0; i < listOfEntities.length; i++) {\n            if (listOfEntities[i].publicKey == msg.sender) {\n                listOfEntities[i] = listOfEntities[listOfEntities.length - 1];\n                listOfEntities.pop();\n            }\n        }\n    }\n\n    //Delete all the rows exept the first one which is entity DASES Admin\n    function completeCleaning() public onlyOwner {\n        delete listOfEntities;\n        listOfEntities.push(\n            Entities(dasesAdmin, \"DASES Administrator\", \"contact@dases.com\")\n        );\n    }\n\n    //Replace The Administrator\n    function replaceAdmin(address _newAdmin) public onlyOwner {\n        dasesAdmin = _newAdmin;\n        transferOwnership(_newAdmin);\n        listOfEntities[0].publicKey = dasesAdmin;\n    }\n\n        //This function changes the maximum number of Entities in the list\n        //It can only be called by another contract or accounts\n    function changeNumberEntities(uint _maxEntities) external {\n        maxEntities = _maxEntities;\n    }\n\n    //Collect the list of Entities\n    function getAssociatedEntitiesList()\n        public\n        view\n        returns (Entities[] memory)\n    {\n        return listOfEntities;\n    }\n}\n",
  "sourcePath": "/home/perrin/Project/blockchain-developer-bootcamp-final-project/contracts/DidForDases.sol",
  "compiler": {
    "name": "solc",
    "version": "0.8.10+commit.fc410830.Emscripten.clang"
  },
  "schemaVersion": "3.4.3",
  "updatedAt": "2021-11-30T23:52:01.353Z",
  "networkType": "ethereum",
  "devdoc": {
    "author": "Perrin Grandne",
    "kind": "dev",
    "methods": {
      "owner()": {
        "details": "Returns the address of the current owner."
      },
      "renounceOwnership()": {
        "details": "Leaves the contract without owner. It will not be possible to call `onlyOwner` functions anymore. Can only be called by the current owner. NOTE: Renouncing ownership will leave the contract without an owner, thereby removing any functionality that is only available to the owner."
      },
      "transferOwnership(address)": {
        "details": "Transfers ownership of the contract to a new account (`newOwner`). Can only be called by the current owner."
      }
    },
    "title": "An association between public address and entity name/entity contact",
    "version": 1
  },
  "userdoc": {
    "kind": "user",
    "methods": {},
    "notice": "This contract allows to add a row in an array with the address of the sender, his name and his email",
    "version": 1
  }
}