{
  "contractName": "DidForDases",
  "abi": [
    {
      "inputs": [
        {
          "internalType": "uint256",
          "name": "",
          "type": "uint256"
        }
      ],
      "name": "listOfEntities",
      "outputs": [
        {
          "internalType": "address",
          "name": "publicKey",
          "type": "address"
        },
        {
          "internalType": "string",
          "name": "entityName",
          "type": "string"
        },
        {
          "internalType": "string",
          "name": "emailContact",
          "type": "string"
        }
      ],
      "stateMutability": "view",
      "type": "function"
    },
    {
      "inputs": [
        {
          "internalType": "string",
          "name": "_entityName",
          "type": "string"
        },
        {
          "internalType": "string",
          "name": "_emailContact",
          "type": "string"
        }
      ],
      "name": "idAssociation",
      "outputs": [],
      "stateMutability": "nonpayable",
      "type": "function"
    },
    {
      "inputs": [
        {
          "internalType": "string",
          "name": "_entityName",
          "type": "string"
        },
        {
          "internalType": "string",
          "name": "_emailContact",
          "type": "string"
        }
      ],
      "name": "idUpdate",
      "outputs": [],
      "stateMutability": "nonpayable",
      "type": "function"
    },
    {
      "inputs": [],
      "name": "idDelete",
      "outputs": [],
      "stateMutability": "nonpayable",
      "type": "function"
    },
    {
      "inputs": [],
      "name": "getAssociatedEntitiesList",
      "outputs": [
        {
          "components": [
            {
              "internalType": "address",
              "name": "publicKey",
              "type": "address"
            },
            {
              "internalType": "string",
              "name": "entityName",
              "type": "string"
            },
            {
              "internalType": "string",
              "name": "emailContact",
              "type": "string"
            }
          ],
          "internalType": "struct DidForDases.Entities[]",
          "name": "",
          "type": "tuple[]"
        }
      ],
      "stateMutability": "view",
      "type": "function"
    }
  ],
  "bytecode": "0x608060405234801561001057600080fd5b50611022806100206000396000f3fe608060405234801561001057600080fd5b50600436106100575760003560e01c80630112d8551461005c5780634c1e14731461008e5780635f0a482d146100aa578063b0d92c6a146100c6578063e43baaba146100e4575b600080fd5b610076600480360381019061007191906109f4565b6100ee565b60405161008593929190610afb565b60405180910390f35b6100a860048036038101906100a39190610c75565b610258565b005b6100c460048036038101906100bf9190610c75565b61036e565b005b6100ce610451565b6040516100db9190610e5f565b60405180910390f35b6100ec61062a565b005b600081815481106100fe57600080fd5b90600052602060002090600302016000915090508060000160009054906101000a900473ffffffffffffffffffffffffffffffffffffffff169080600101805461014790610eb0565b80601f016020809104026020016040519081016040528092919081815260200182805461017390610eb0565b80156101c05780601f10610195576101008083540402835291602001916101c0565b820191906000526020600020905b8154815290600101906020018083116101a357829003601f168201915b5050505050908060020180546101d590610eb0565b80601f016020809104026020016040519081016040528092919081815260200182805461020190610eb0565b801561024e5780601f106102235761010080835404028352916020019161024e565b820191906000526020600020905b81548152906001019060200180831161023157829003601f168201915b5050505050905083565b60005b600080549050811015610369573373ffffffffffffffffffffffffffffffffffffffff166000828154811061029357610292610ee2565b5b906000526020600020906003020160000160009054906101000a900473ffffffffffffffffffffffffffffffffffffffff1673ffffffffffffffffffffffffffffffffffffffff1614156103565782600082815481106102f6576102f5610ee2565b5b9060005260206000209060030201600101908051906020019061031a92919061083a565b5081600082815481106103305761032f610ee2565b5b9060005260206000209060030201600201908051906020019061035492919061083a565b505b808061036190610f40565b91505061025b565b505050565b600060405180606001604052803373ffffffffffffffffffffffffffffffffffffffff16815260200184815260200183815250908060018154018082558091505060019003906000526020600020906003020160009091909190915060008201518160000160006101000a81548173ffffffffffffffffffffffffffffffffffffffff021916908373ffffffffffffffffffffffffffffffffffffffff160217905550602082015181600101908051906020019061042d92919061083a565b50604082015181600201908051906020019061044a92919061083a565b5050505050565b60606000805480602002602001604051908101604052809291908181526020016000905b8282101561062157838290600052602060002090600302016040518060600160405290816000820160009054906101000a900473ffffffffffffffffffffffffffffffffffffffff1673ffffffffffffffffffffffffffffffffffffffff1673ffffffffffffffffffffffffffffffffffffffff1681526020016001820180546104fe90610eb0565b80601f016020809104026020016040519081016040528092919081815260200182805461052a90610eb0565b80156105775780601f1061054c57610100808354040283529160200191610577565b820191906000526020600020905b81548152906001019060200180831161055a57829003601f168201915b5050505050815260200160028201805461059090610eb0565b80601f01602080910402602001604051908101604052809291908181526020018280546105bc90610eb0565b80156106095780601f106105de57610100808354040283529160200191610609565b820191906000526020600020905b8154815290600101906020018083116105ec57829003601f168201915b50505050508152505081526020019060010190610475565b50505050905090565b60005b600080549050811015610837573373ffffffffffffffffffffffffffffffffffffffff166000828154811061066557610664610ee2565b5b906000526020600020906003020160000160009054906101000a900473ffffffffffffffffffffffffffffffffffffffff1673ffffffffffffffffffffffffffffffffffffffff161461082457600060016000805490506106c69190610f89565b815481106106d7576106d6610ee2565b5b9060005260206000209060030201600082815481106106f9576106f8610ee2565b5b90600052602060002090600302016000820160009054906101000a900473ffffffffffffffffffffffffffffffffffffffff168160000160006101000a81548173ffffffffffffffffffffffffffffffffffffffff021916908373ffffffffffffffffffffffffffffffffffffffff160217905550600182018160010190805461078290610eb0565b61078d9291906108c0565b5060028201816002019080546107a290610eb0565b6107ad9291906108c0565b5090505060008054806107c3576107c2610fbd565b5b6001900381819060005260206000209060030201600080820160006101000a81549073ffffffffffffffffffffffffffffffffffffffff021916905560018201600061080f919061094d565b60028201600061081f919061094d565b505090555b808061082f90610f40565b91505061062d565b50565b82805461084690610eb0565b90600052602060002090601f01602090048101928261086857600085556108af565b82601f1061088157805160ff19168380011785556108af565b828001600101855582156108af579182015b828111156108ae578251825591602001919060010190610893565b5b5090506108bc919061098d565b5090565b8280546108cc90610eb0565b90600052602060002090601f0160209004810192826108ee576000855561093c565b82601f106108ff578054855561093c565b8280016001018555821561093c57600052602060002091601f016020900482015b8281111561093b578254825591600101919060010190610920565b5b509050610949919061098d565b5090565b50805461095990610eb0565b6000825580601f1061096b575061098a565b601f016020900490600052602060002090810190610989919061098d565b5b50565b5b808211156109a657600081600090555060010161098e565b5090565b6000604051905090565b600080fd5b600080fd5b6000819050919050565b6109d1816109be565b81146109dc57600080fd5b50565b6000813590506109ee816109c8565b92915050565b600060208284031215610a0a57610a096109b4565b5b6000610a18848285016109df565b91505092915050565b600073ffffffffffffffffffffffffffffffffffffffff82169050919050565b6000610a4c82610a21565b9050919050565b610a5c81610a41565b82525050565b600081519050919050565b600082825260208201905092915050565b60005b83811015610a9c578082015181840152602081019050610a81565b83811115610aab576000848401525b50505050565b6000601f19601f8301169050919050565b6000610acd82610a62565b610ad78185610a6d565b9350610ae7818560208601610a7e565b610af081610ab1565b840191505092915050565b6000606082019050610b106000830186610a53565b8181036020830152610b228185610ac2565b90508181036040830152610b368184610ac2565b9050949350505050565b600080fd5b600080fd5b7f4e487b7100000000000000000000000000000000000000000000000000000000600052604160045260246000fd5b610b8282610ab1565b810181811067ffffffffffffffff82111715610ba157610ba0610b4a565b5b80604052505050565b6000610bb46109aa565b9050610bc08282610b79565b919050565b600067ffffffffffffffff821115610be057610bdf610b4a565b5b610be982610ab1565b9050602081019050919050565b82818337600083830152505050565b6000610c18610c1384610bc5565b610baa565b905082815260208101848484011115610c3457610c33610b45565b5b610c3f848285610bf6565b509392505050565b600082601f830112610c5c57610c5b610b40565b5b8135610c6c848260208601610c05565b91505092915050565b60008060408385031215610c8c57610c8b6109b4565b5b600083013567ffffffffffffffff811115610caa57610ca96109b9565b5b610cb685828601610c47565b925050602083013567ffffffffffffffff811115610cd757610cd66109b9565b5b610ce385828601610c47565b9150509250929050565b600081519050919050565b600082825260208201905092915050565b6000819050602082019050919050565b610d2281610a41565b82525050565b600082825260208201905092915050565b6000610d4482610a62565b610d4e8185610d28565b9350610d5e818560208601610a7e565b610d6781610ab1565b840191505092915050565b6000606083016000830151610d8a6000860182610d19565b5060208301518482036020860152610da28282610d39565b91505060408301518482036040860152610dbc8282610d39565b9150508091505092915050565b6000610dd58383610d72565b905092915050565b6000602082019050919050565b6000610df582610ced565b610dff8185610cf8565b935083602082028501610e1185610d09565b8060005b85811015610e4d5784840389528151610e2e8582610dc9565b9450610e3983610ddd565b925060208a01995050600181019050610e15565b50829750879550505050505092915050565b60006020820190508181036000830152610e798184610dea565b905092915050565b7f4e487b7100000000000000000000000000000000000000000000000000000000600052602260045260246000fd5b60006002820490506001821680610ec857607f821691505b60208210811415610edc57610edb610e81565b5b50919050565b7f4e487b7100000000000000000000000000000000000000000000000000000000600052603260045260246000fd5b7f4e487b7100000000000000000000000000000000000000000000000000000000600052601160045260246000fd5b6000610f4b826109be565b91507fffffffffffffffffffffffffffffffffffffffffffffffffffffffffffffffff821415610f7e57610f7d610f11565b5b600182019050919050565b6000610f94826109be565b9150610f9f836109be565b925082821015610fb257610fb1610f11565b5b828203905092915050565b7f4e487b7100000000000000000000000000000000000000000000000000000000600052603160045260246000fdfea264697066735822122028e7fbaf5a0251b693672a8d6ba77dafc9d2e6bed0b6e8dd462a1daadd6e179964736f6c634300080a0033",
  "immutableReferences": {},
  "source": "// SPDX-License-Identifier: MIT\npragma solidity >=0.4.22 <0.9.0;\n\ncontract DidForDases {\n    struct Entities {\n        //Struct\n        address publicKey;\n        string entityName;\n        string emailContact;\n    }\n\n    //An array of 'ListOfEntities' structs\n    Entities[] public listOfEntities;\n\n    function idAssociation(\n        string memory _entityName,\n        string memory _emailContact\n    ) public {\n        listOfEntities.push(Entities(msg.sender, _entityName, _emailContact));\n    }\n\n    function idUpdate(string memory _entityName, string memory _emailContact)\n        public\n    {\n        for (uint256 i = 0; i < listOfEntities.length; i++) {\n            if (listOfEntities[i].publicKey == msg.sender) {\n                listOfEntities[i].entityName = _entityName;\n                listOfEntities[i].emailContact = _emailContact;\n            }\n        }\n    }\n\n    function idDelete() public {\n        for (uint256 i = 0; i < listOfEntities.length; i++) {\n            if (listOfEntities[i].publicKey != msg.sender) {\n                listOfEntities[i] = listOfEntities[listOfEntities.length - 1];\n                listOfEntities.pop();\n            }\n        }\n    }\n\n    function getAssociatedEntitiesList()\n        public\n        view\n        returns (Entities[] memory)\n    {\n        return listOfEntities;\n    }\n}\n",
  "sourcePath": "/home/perrin/Project/zzz/contracts/DidForDases.sol",
  "compiler": {
    "name": "solc",
    "version": "0.8.10+commit.fc410830.Emscripten.clang"
  },
  "schemaVersion": "3.4.3",
  "updatedAt": "2021-11-28T19:04:47.281Z",
  "devdoc": {
    "kind": "dev",
    "methods": {},
    "version": 1
  },
  "userdoc": {
    "kind": "user",
    "methods": {},
    "version": 1
  }
}