{
  "contractName": "DidForDases",
  "abi": [
    {
      "inputs": [],
      "stateMutability": "nonpayable",
      "type": "constructor"
    },
    {
      "anonymous": false,
      "inputs": [
        {
          "indexed": true,
          "internalType": "address",
          "name": "previousOwner",
          "type": "address"
        },
        {
          "indexed": true,
          "internalType": "address",
          "name": "newOwner",
          "type": "address"
        }
      ],
      "name": "OwnershipTransferred",
      "type": "event"
    },
    {
      "anonymous": false,
      "inputs": [
        {
          "indexed": false,
          "internalType": "string",
          "name": "message",
          "type": "string"
        },
        {
          "indexed": false,
          "internalType": "address",
          "name": "emetteur",
          "type": "address"
        }
      ],
      "name": "Suivi",
      "type": "event"
    },
    {
      "inputs": [],
      "name": "dasesAdmin",
      "outputs": [
        {
          "internalType": "address",
          "name": "",
          "type": "address"
        }
      ],
      "stateMutability": "view",
      "type": "function",
      "constant": true
    },
    {
      "inputs": [
        {
          "internalType": "uint256",
          "name": "",
          "type": "uint256"
        }
      ],
      "name": "listOfEntities",
      "outputs": [
        {
          "internalType": "address",
          "name": "publicKey",
          "type": "address"
        },
        {
          "internalType": "string",
          "name": "entityName",
          "type": "string"
        },
        {
          "internalType": "string",
          "name": "emailContact",
          "type": "string"
        }
      ],
      "stateMutability": "view",
      "type": "function",
      "constant": true
    },
    {
      "inputs": [],
      "name": "maxEntities",
      "outputs": [
        {
          "internalType": "uint256",
          "name": "",
          "type": "uint256"
        }
      ],
      "stateMutability": "view",
      "type": "function",
      "constant": true
    },
    {
      "inputs": [],
      "name": "owner",
      "outputs": [
        {
          "internalType": "address",
          "name": "",
          "type": "address"
        }
      ],
      "stateMutability": "view",
      "type": "function",
      "constant": true
    },
    {
      "inputs": [],
      "name": "renounceOwnership",
      "outputs": [],
      "stateMutability": "nonpayable",
      "type": "function"
    },
    {
      "inputs": [
        {
          "internalType": "address",
          "name": "newOwner",
          "type": "address"
        }
      ],
      "name": "transferOwnership",
      "outputs": [],
      "stateMutability": "nonpayable",
      "type": "function"
    },
    {
      "inputs": [
        {
          "internalType": "string",
          "name": "_entityName",
          "type": "string"
        },
        {
          "internalType": "string",
          "name": "_emailContact",
          "type": "string"
        }
      ],
      "name": "idAssociation",
      "outputs": [],
      "stateMutability": "nonpayable",
      "type": "function"
    },
    {
      "inputs": [
        {
          "internalType": "string",
          "name": "_entityName",
          "type": "string"
        },
        {
          "internalType": "string",
          "name": "_emailContact",
          "type": "string"
        }
      ],
      "name": "idUpdate",
      "outputs": [],
      "stateMutability": "nonpayable",
      "type": "function"
    },
    {
      "inputs": [],
      "name": "idDelete",
      "outputs": [],
      "stateMutability": "nonpayable",
      "type": "function"
    },
    {
      "inputs": [],
      "name": "completeCleaning",
      "outputs": [],
      "stateMutability": "nonpayable",
      "type": "function"
    },
    {
      "inputs": [
        {
          "internalType": "address",
          "name": "_newAdmin",
          "type": "address"
        }
      ],
      "name": "replaceAdmin",
      "outputs": [],
      "stateMutability": "nonpayable",
      "type": "function"
    },
    {
      "inputs": [
        {
          "internalType": "uint256",
          "name": "_maxEntities",
          "type": "uint256"
        }
      ],
      "name": "changeNumberEntities",
      "outputs": [],
      "stateMutability": "nonpayable",
      "type": "function"
    },
    {
      "inputs": [],
      "name": "getAssociatedEntitiesList",
      "outputs": [
        {
          "components": [
            {
              "internalType": "address",
              "name": "publicKey",
              "type": "address"
            },
            {
              "internalType": "string",
              "name": "entityName",
              "type": "string"
            },
            {
              "internalType": "string",
              "name": "emailContact",
              "type": "string"
            }
          ],
          "internalType": "struct DidForDases.Entities[]",
          "name": "",
          "type": "tuple[]"
        }
      ],
      "stateMutability": "view",
      "type": "function",
      "constant": true
    }
  ],
  "bytecode": "0x60806040523480156200001157600080fd5b506200003262000026620001f060201b60201c565b620001f860201b60201c565b33600260006101000a81548173ffffffffffffffffffffffffffffffffffffffff021916908373ffffffffffffffffffffffffffffffffffffffff16021790555060016040518060600160405280600260009054906101000a900473ffffffffffffffffffffffffffffffffffffffff1673ffffffffffffffffffffffffffffffffffffffff1681526020016040518060400160405280601381526020017f44415345532041646d696e6973747261746f720000000000000000000000000081525081526020016040518060400160405280601181526020017f636f6e746163744064617365732e636f6d000000000000000000000000000000815250815250908060018154018082558091505060019003906000526020600020906003020160009091909190915060008201518160000160006101000a81548173ffffffffffffffffffffffffffffffffffffffff021916908373ffffffffffffffffffffffffffffffffffffffff1602179055506020820151816001019080519060200190620001c0929190620002bc565b506040820151816002019080519060200190620001df929190620002bc565b505050600a600381905550620003d1565b600033905090565b60008060009054906101000a900473ffffffffffffffffffffffffffffffffffffffff169050816000806101000a81548173ffffffffffffffffffffffffffffffffffffffff021916908373ffffffffffffffffffffffffffffffffffffffff1602179055508173ffffffffffffffffffffffffffffffffffffffff168173ffffffffffffffffffffffffffffffffffffffff167f8be0079c531659141344cd1fd0a4f28419497f9722a3daafe3b4186f6b6457e060405160405180910390a35050565b828054620002ca906200039b565b90600052602060002090601f016020900481019282620002ee57600085556200033a565b82601f106200030957805160ff19168380011785556200033a565b828001600101855582156200033a579182015b82811115620003395782518255916020019190600101906200031c565b5b5090506200034991906200034d565b5090565b5b80821115620003685760008160009055506001016200034e565b5090565b7f4e487b7100000000000000000000000000000000000000000000000000000000600052602260045260246000fd5b60006002820490506001821680620003b457607f821691505b60208210811415620003cb57620003ca6200036c565b5b50919050565b611c1380620003e16000396000f3fe608060405234801561001057600080fd5b50600436106100cf5760003560e01c8063715018a61161008c578063b0d92c6a11610066578063b0d92c6a146101c8578063c4f4face146101e6578063e43baaba14610202578063f2fde38b1461020c576100cf565b8063715018a6146101965780638da5cb5b146101a0578063932e9e35146101be576100cf565b80630112d855146100d45780630e7ce7ab146101065780630e87173b1461012457806312fa7e99146101405780634c1e14731461015e5780635f0a482d1461017a575b600080fd5b6100ee60048036038101906100e99190611325565b610228565b6040516100fd9392919061142c565b60405180910390f35b61010e610392565b60405161011b9190611480565b60405180910390f35b61013e60048036038101906101399190611325565b610398565b005b6101486103a2565b604051610155919061149b565b60405180910390f35b610178600480360381019061017391906115eb565b6103c8565b005b610194600480360381019061018f91906115eb565b6104e2565b005b61019e6106ea565b005b6101a8610772565b6040516101b5919061149b565b60405180910390f35b6101c661079b565b005b6101d0610992565b6040516101dd91906117d5565b60405180910390f35b61020060048036038101906101fb9190611823565b610b6b565b005b61020a610cbb565b005b61022660048036038101906102219190611823565b610f25565b005b6001818154811061023857600080fd5b90600052602060002090600302016000915090508060000160009054906101000a900473ffffffffffffffffffffffffffffffffffffffff16908060010180546102819061187f565b80601f01602080910402602001604051908101604052809291908181526020018280546102ad9061187f565b80156102fa5780601f106102cf576101008083540402835291602001916102fa565b820191906000526020600020905b8154815290600101906020018083116102dd57829003601f168201915b50505050509080600201805461030f9061187f565b80601f016020809104026020016040519081016040528092919081815260200182805461033b9061187f565b80156103885780601f1061035d57610100808354040283529160200191610388565b820191906000526020600020905b81548152906001019060200180831161036b57829003601f168201915b5050505050905083565b60035481565b8060038190555050565b600260009054906101000a900473ffffffffffffffffffffffffffffffffffffffff1681565b60005b6001805490508110156104dd573373ffffffffffffffffffffffffffffffffffffffff1660018281548110610403576104026118b1565b5b906000526020600020906003020160000160009054906101000a900473ffffffffffffffffffffffffffffffffffffffff1673ffffffffffffffffffffffffffffffffffffffff1614156104ca578260018281548110610466576104656118b1565b5b9060005260206000209060030201600101908051906020019061048a9291906110e9565b5081600182815481106104a05761049f6118b1565b5b906000526020600020906003020160020190805190602001906104c49291906110e9565b506104dd565b80806104d59061190f565b9150506103cb565b505050565b60005b6001805490508110156105bd573373ffffffffffffffffffffffffffffffffffffffff166001828154811061051d5761051c6118b1565b5b906000526020600020906003020160000160009054906101000a900473ffffffffffffffffffffffffffffffffffffffff1673ffffffffffffffffffffffffffffffffffffffff161461056f576105aa565b6040517f08c379a00000000000000000000000000000000000000000000000000000000081526004016105a1906119ca565b60405180910390fd5b80806105b59061190f565b9150506104e5565b5060035460018054905010610607576040517f08c379a00000000000000000000000000000000000000000000000000000000081526004016105fe90611a5c565b60405180910390fd5b600160405180606001604052803373ffffffffffffffffffffffffffffffffffffffff16815260200184815260200183815250908060018154018082558091505060019003906000526020600020906003020160009091909190915060008201518160000160006101000a81548173ffffffffffffffffffffffffffffffffffffffff021916908373ffffffffffffffffffffffffffffffffffffffff16021790555060208201518160010190805190602001906106c69291906110e9565b5060408201518160020190805190602001906106e39291906110e9565b5050505050565b6106f261101d565b73ffffffffffffffffffffffffffffffffffffffff16610710610772565b73ffffffffffffffffffffffffffffffffffffffff1614610766576040517f08c379a000000000000000000000000000000000000000000000000000000000815260040161075d90611ac8565b60405180910390fd5b6107706000611025565b565b60008060009054906101000a900473ffffffffffffffffffffffffffffffffffffffff16905090565b6107a361101d565b73ffffffffffffffffffffffffffffffffffffffff166107c1610772565b73ffffffffffffffffffffffffffffffffffffffff1614610817576040517f08c379a000000000000000000000000000000000000000000000000000000000815260040161080e90611ac8565b60405180910390fd5b60016000610825919061116f565b60016040518060600160405280600260009054906101000a900473ffffffffffffffffffffffffffffffffffffffff1673ffffffffffffffffffffffffffffffffffffffff1681526020016040518060400160405280601381526020017f44415345532041646d696e6973747261746f720000000000000000000000000081525081526020016040518060400160405280601181526020017f636f6e746163744064617365732e636f6d000000000000000000000000000000815250815250908060018154018082558091505060019003906000526020600020906003020160009091909190915060008201518160000160006101000a81548173ffffffffffffffffffffffffffffffffffffffff021916908373ffffffffffffffffffffffffffffffffffffffff16021790555060208201518160010190805190602001906109709291906110e9565b50604082015181600201908051906020019061098d9291906110e9565b505050565b60606001805480602002602001604051908101604052809291908181526020016000905b82821015610b6257838290600052602060002090600302016040518060600160405290816000820160009054906101000a900473ffffffffffffffffffffffffffffffffffffffff1673ffffffffffffffffffffffffffffffffffffffff1673ffffffffffffffffffffffffffffffffffffffff168152602001600182018054610a3f9061187f565b80601f0160208091040260200160405190810160405280929190818152602001828054610a6b9061187f565b8015610ab85780601f10610a8d57610100808354040283529160200191610ab8565b820191906000526020600020905b815481529060010190602001808311610a9b57829003601f168201915b50505050508152602001600282018054610ad19061187f565b80601f0160208091040260200160405190810160405280929190818152602001828054610afd9061187f565b8015610b4a5780601f10610b1f57610100808354040283529160200191610b4a565b820191906000526020600020905b815481529060010190602001808311610b2d57829003601f168201915b505050505081525050815260200190600101906109b6565b50505050905090565b610b7361101d565b73ffffffffffffffffffffffffffffffffffffffff16610b91610772565b73ffffffffffffffffffffffffffffffffffffffff1614610be7576040517f08c379a0000000000000000000000000000000000000000000000000000000008152600401610bde90611ac8565b60405180910390fd5b80600260006101000a81548173ffffffffffffffffffffffffffffffffffffffff021916908373ffffffffffffffffffffffffffffffffffffffff160217905550610c3181610f25565b600260009054906101000a900473ffffffffffffffffffffffffffffffffffffffff166001600081548110610c6957610c686118b1565b5b906000526020600020906003020160000160006101000a81548173ffffffffffffffffffffffffffffffffffffffff021916908373ffffffffffffffffffffffffffffffffffffffff16021790555050565b600260009054906101000a900473ffffffffffffffffffffffffffffffffffffffff1673ffffffffffffffffffffffffffffffffffffffff163373ffffffffffffffffffffffffffffffffffffffff161415610d1657600080fd5b60005b600180549050811015610f22573373ffffffffffffffffffffffffffffffffffffffff1660018281548110610d5157610d506118b1565b5b906000526020600020906003020160000160009054906101000a900473ffffffffffffffffffffffffffffffffffffffff1673ffffffffffffffffffffffffffffffffffffffff161415610f0f576001808080549050610db19190611ae8565b81548110610dc257610dc16118b1565b5b906000526020600020906003020160018281548110610de457610de36118b1565b5b90600052602060002090600302016000820160009054906101000a900473ffffffffffffffffffffffffffffffffffffffff168160000160006101000a81548173ffffffffffffffffffffffffffffffffffffffff021916908373ffffffffffffffffffffffffffffffffffffffff1602179055506001820181600101908054610e6d9061187f565b610e78929190611193565b506002820181600201908054610e8d9061187f565b610e98929190611193565b509050506001805480610eae57610ead611b1c565b5b6001900381819060005260206000209060030201600080820160006101000a81549073ffffffffffffffffffffffffffffffffffffffff0219169055600182016000610efa9190611220565b600282016000610f0a9190611220565b505090555b8080610f1a9061190f565b915050610d19565b50565b610f2d61101d565b73ffffffffffffffffffffffffffffffffffffffff16610f4b610772565b73ffffffffffffffffffffffffffffffffffffffff1614610fa1576040517f08c379a0000000000000000000000000000000000000000000000000000000008152600401610f9890611ac8565b60405180910390fd5b600073ffffffffffffffffffffffffffffffffffffffff168173ffffffffffffffffffffffffffffffffffffffff161415611011576040517f08c379a000000000000000000000000000000000000000000000000000000000815260040161100890611bbd565b60405180910390fd5b61101a81611025565b50565b600033905090565b60008060009054906101000a900473ffffffffffffffffffffffffffffffffffffffff169050816000806101000a81548173ffffffffffffffffffffffffffffffffffffffff021916908373ffffffffffffffffffffffffffffffffffffffff1602179055508173ffffffffffffffffffffffffffffffffffffffff168173ffffffffffffffffffffffffffffffffffffffff167f8be0079c531659141344cd1fd0a4f28419497f9722a3daafe3b4186f6b6457e060405160405180910390a35050565b8280546110f59061187f565b90600052602060002090601f016020900481019282611117576000855561115e565b82601f1061113057805160ff191683800117855561115e565b8280016001018555821561115e579182015b8281111561115d578251825591602001919060010190611142565b5b50905061116b9190611260565b5090565b5080546000825560030290600052602060002090810190611190919061127d565b50565b82805461119f9061187f565b90600052602060002090601f0160209004810192826111c1576000855561120f565b82601f106111d2578054855561120f565b8280016001018555821561120f57600052602060002091601f016020900482015b8281111561120e5782548255916001019190600101906111f3565b5b50905061121c9190611260565b5090565b50805461122c9061187f565b6000825580601f1061123e575061125d565b601f01602090049060005260206000209081019061125c9190611260565b5b50565b5b80821115611279576000816000905550600101611261565b5090565b5b808211156112d757600080820160006101000a81549073ffffffffffffffffffffffffffffffffffffffff02191690556001820160006112be9190611220565b6002820160006112ce9190611220565b5060030161127e565b5090565b6000604051905090565b600080fd5b600080fd5b6000819050919050565b611302816112ef565b811461130d57600080fd5b50565b60008135905061131f816112f9565b92915050565b60006020828403121561133b5761133a6112e5565b5b600061134984828501611310565b91505092915050565b600073ffffffffffffffffffffffffffffffffffffffff82169050919050565b600061137d82611352565b9050919050565b61138d81611372565b82525050565b600081519050919050565b600082825260208201905092915050565b60005b838110156113cd5780820151818401526020810190506113b2565b838111156113dc576000848401525b50505050565b6000601f19601f8301169050919050565b60006113fe82611393565b611408818561139e565b93506114188185602086016113af565b611421816113e2565b840191505092915050565b60006060820190506114416000830186611384565b818103602083015261145381856113f3565b9050818103604083015261146781846113f3565b9050949350505050565b61147a816112ef565b82525050565b60006020820190506114956000830184611471565b92915050565b60006020820190506114b06000830184611384565b92915050565b600080fd5b600080fd5b7f4e487b7100000000000000000000000000000000000000000000000000000000600052604160045260246000fd5b6114f8826113e2565b810181811067ffffffffffffffff82111715611517576115166114c0565b5b80604052505050565b600061152a6112db565b905061153682826114ef565b919050565b600067ffffffffffffffff821115611556576115556114c0565b5b61155f826113e2565b9050602081019050919050565b82818337600083830152505050565b600061158e6115898461153b565b611520565b9050828152602081018484840111156115aa576115a96114bb565b5b6115b584828561156c565b509392505050565b600082601f8301126115d2576115d16114b6565b5b81356115e284826020860161157b565b91505092915050565b60008060408385031215611602576116016112e5565b5b600083013567ffffffffffffffff8111156116205761161f6112ea565b5b61162c858286016115bd565b925050602083013567ffffffffffffffff81111561164d5761164c6112ea565b5b611659858286016115bd565b9150509250929050565b600081519050919050565b600082825260208201905092915050565b6000819050602082019050919050565b61169881611372565b82525050565b600082825260208201905092915050565b60006116ba82611393565b6116c4818561169e565b93506116d48185602086016113af565b6116dd816113e2565b840191505092915050565b6000606083016000830151611700600086018261168f565b506020830151848203602086015261171882826116af565b9150506040830151848203604086015261173282826116af565b9150508091505092915050565b600061174b83836116e8565b905092915050565b6000602082019050919050565b600061176b82611663565b611775818561166e565b9350836020820285016117878561167f565b8060005b858110156117c357848403895281516117a4858261173f565b94506117af83611753565b925060208a0199505060018101905061178b565b50829750879550505050505092915050565b600060208201905081810360008301526117ef8184611760565b905092915050565b61180081611372565b811461180b57600080fd5b50565b60008135905061181d816117f7565b92915050565b600060208284031215611839576118386112e5565b5b60006118478482850161180e565b91505092915050565b7f4e487b7100000000000000000000000000000000000000000000000000000000600052602260045260246000fd5b6000600282049050600182168061189757607f821691505b602082108114156118ab576118aa611850565b5b50919050565b7f4e487b7100000000000000000000000000000000000000000000000000000000600052603260045260246000fd5b7f4e487b7100000000000000000000000000000000000000000000000000000000600052601160045260246000fd5b600061191a826112ef565b91507fffffffffffffffffffffffffffffffffffffffffffffffffffffffffffffffff82141561194d5761194c6118e0565b5b600182019050919050565b7f596f7572206164647265737320697320616c7265616479206578697374696e6760008201527f20696e20746865206c697374206f6620456e7469746965730000000000000000602082015250565b60006119b460388361139e565b91506119bf82611958565b604082019050919050565b600060208201905081810360008301526119e3816119a7565b9050919050565b7f546865206d6178696d756d206e756d626572206f6620656e746974696573206960008201527f7320726561636865640000000000000000000000000000000000000000000000602082015250565b6000611a4660298361139e565b9150611a51826119ea565b604082019050919050565b60006020820190508181036000830152611a7581611a39565b9050919050565b7f4f776e61626c653a2063616c6c6572206973206e6f7420746865206f776e6572600082015250565b6000611ab260208361139e565b9150611abd82611a7c565b602082019050919050565b60006020820190508181036000830152611ae181611aa5565b9050919050565b6000611af3826112ef565b9150611afe836112ef565b925082821015611b1157611b106118e0565b5b828203905092915050565b7f4e487b7100000000000000000000000000000000000000000000000000000000600052603160045260246000fd5b7f4f776e61626c653a206e6577206f776e657220697320746865207a65726f206160008201527f6464726573730000000000000000000000000000000000000000000000000000602082015250565b6000611ba760268361139e565b9150611bb282611b4b565b604082019050919050565b60006020820190508181036000830152611bd681611b9a565b905091905056fea2646970667358221220c46c075a309860a5013ddc2cafab261cf5ec703ffec5904e06fabe9ce935f8b864736f6c634300080a0033",
  "immutableReferences": {},
  "source": "// SPDX-License-Identifier: MIT\npragma solidity 0.8.10;\n\nimport \"@openzeppelin/contracts/access/Ownable.sol\";\n\n/// @title An association between public address and entity name/entity contact\n/// @author Perrin Grandne\n/// @notice This contract allows to add a row in an array with the address of the sender, his name and his email\n\n//The contract inherits from Ownable module of Open Zeppelin\ncontract DidForDases is Ownable {\n    //This declares a structure type, which will be used as structure of the array with the list of entities\n    struct Entities {\n        address publicKey; // It is the address of the entity who wants to be added\n        string entityName; // It is the name of the entity\n        string emailContact; // It is a contact address of the Entity\n    }\n\n    Entities[] public listOfEntities; //Array which list these entites, based on Entities struct\n\n    address public dasesAdmin; //Owner of the smart contract and manager of the list of entities\n    //It is duplicated with owner from Ownable (but I prefer this name...)\n\n    uint public maxEntities; // Maximum number of Entities in the list\n\n    event Suivi(string message, address emetteur); //Event to trace the interactions\n\n    //Store the address of the creator of the contract and fill in the array with this address as Admin of Dases\n    constructor() {\n        dasesAdmin = msg.sender;\n        listOfEntities.push(\n            Entities(dasesAdmin, \"DASES Administrator\", \"contact@dases.com\")\n        );\n        //Fix the maximum numbr of Entities in the list\n        maxEntities = 10;\n    }\n\n    //Verify that the applicant is not the admin of Dases (to avoid a deletion by mistake)\n    modifier notTheAdmin() {\n        require(msg.sender != dasesAdmin);\n        _;\n    }\n\n    //Verify that the applicant is not already in the list to avoid duplicate entities\n    modifier notAlreadyExisting() {\n        //Read all the array to verify that the entity is not already existing\n        for (uint256 i = 0; i < listOfEntities.length; i++) {\n            if (listOfEntities[i].publicKey != msg.sender) {} else {\n                //If the address is already existing, the transaction is reverted\n                revert(\n                    \"Your address is already existing in the list of Entities\"\n                );\n            }\n        }\n        _;\n    }\n\n    //Associate the address of the applicant to his entity name and his email contact\n    //This assocatiion is stored in the Array listOfEntities\n    function idAssociation(\n        string memory _entityName,\n        string memory _emailContact\n    ) public notAlreadyExisting {\n        //Verify that the number of Entities is not at the limit\n        require(listOfEntities.length<maxEntities,'The maximum number of entities is reached'); \n        //Adding the new entity\n        listOfEntities.push(Entities(msg.sender, _entityName, _emailContact));\n    }\n\n    //Update the entity name and the email contact of applicant into the array ListOfEntities\n    function idUpdate(string memory _entityName, string memory _emailContact)\n        public\n    {\n        //Search the entity address and update name and contact when the address is found\n        for (uint256 i = 0; i < listOfEntities.length; i++) {\n            if (listOfEntities[i].publicKey == msg.sender) {\n                listOfEntities[i].entityName = _entityName;\n                listOfEntities[i].emailContact = _emailContact;\n                break;\n            }\n        }\n    }\n\n    //Delete the row of the applicant into the array ListOfEntities\n    function idDelete() public notTheAdmin {\n        for (uint256 i = 0; i < listOfEntities.length; i++) {\n            if (listOfEntities[i].publicKey == msg.sender) {\n                listOfEntities[i] = listOfEntities[listOfEntities.length - 1];\n                listOfEntities.pop();\n            }\n        }\n    }\n\n    //Delete all the rows exept the first one which is entity DASES Admin\n    function completeCleaning() public onlyOwner {\n        delete listOfEntities;\n        listOfEntities.push(\n            Entities(dasesAdmin, \"DASES Administrator\", \"contact@dases.com\")\n        );\n    }\n\n    //Replace The Administrator\n    function replaceAdmin(address _newAdmin) public onlyOwner {\n        dasesAdmin = _newAdmin;\n        transferOwnership(_newAdmin);\n        listOfEntities[0].publicKey = dasesAdmin;\n    }\n\n        //This function changes the maximum number of Entities in the list\n        //It can only be called by another contract or accounts\n    function changeNumberEntities(uint _maxEntities) external {\n        maxEntities = _maxEntities;\n    }\n\n    //Collect the list of Entities\n    function getAssociatedEntitiesList()\n        public\n        view\n        returns (Entities[] memory)\n    {\n        return listOfEntities;\n    }\n}\n",
  "sourcePath": "/home/perrin/Project/blockchain-developer-bootcamp-final-project/contracts/DidForDases.sol",
  "compiler": {
    "name": "solc",
    "version": "0.8.10+commit.fc410830.Emscripten.clang"
  },
  "schemaVersion": "3.4.3",
  "updatedAt": "2021-11-30T05:38:02.481Z",
  "networkType": "ethereum",
  "devdoc": {
    "author": "Perrin Grandne",
    "kind": "dev",
    "methods": {
      "owner()": {
        "details": "Returns the address of the current owner."
      },
      "renounceOwnership()": {
        "details": "Leaves the contract without owner. It will not be possible to call `onlyOwner` functions anymore. Can only be called by the current owner. NOTE: Renouncing ownership will leave the contract without an owner, thereby removing any functionality that is only available to the owner."
      },
      "transferOwnership(address)": {
        "details": "Transfers ownership of the contract to a new account (`newOwner`). Can only be called by the current owner."
      }
    },
    "title": "An association between public address and entity name/entity contact",
    "version": 1
  },
  "userdoc": {
    "kind": "user",
    "methods": {},
    "notice": "This contract allows to add a row in an array with the address of the sender, his name and his email",
    "version": 1
  }
}