{
  "contractName": "EntitiesNumber",
  "abi": [
    {
      "inputs": [
        {
          "internalType": "address",
          "name": "_dfd",
          "type": "address"
        },
        {
          "internalType": "uint256",
          "name": "_maxNumber",
          "type": "uint256"
        }
      ],
      "name": "callChangeNumberEntities",
      "outputs": [],
      "stateMutability": "nonpayable",
      "type": "function"
    }
  ],
  "bytecode": "0x608060405234801561001057600080fd5b506101fa806100206000396000f3fe608060405234801561001057600080fd5b506004361061002b5760003560e01c8063a6d8943c14610030575b600080fd5b61004a6004803603810190610045919061015a565b61004c565b005b60008290508073ffffffffffffffffffffffffffffffffffffffff16630e87173b836040518263ffffffff1660e01b815260040161008a91906101a9565b600060405180830381600087803b1580156100a457600080fd5b505af11580156100b8573d6000803e3d6000fd5b50505050505050565b600080fd5b600073ffffffffffffffffffffffffffffffffffffffff82169050919050565b60006100f1826100c6565b9050919050565b610101816100e6565b811461010c57600080fd5b50565b60008135905061011e816100f8565b92915050565b6000819050919050565b61013781610124565b811461014257600080fd5b50565b6000813590506101548161012e565b92915050565b60008060408385031215610171576101706100c1565b5b600061017f8582860161010f565b925050602061019085828601610145565b9150509250929050565b6101a381610124565b82525050565b60006020820190506101be600083018461019a565b9291505056fea2646970667358221220972e29552f352fd110b297c335cb6dd9ec29e08fee4e01a3dccf07ffa8765e7d64736f6c634300080a0033",
  "immutableReferences": {},
  "source": "// SPDX-License-Identifier: MIT\npragma solidity 0.8.10;\n\nimport \"./DidForDases.sol\";\n\n//Contract to access and change the number of Entities in the list\ncontract EntitiesNumber {\n    function callChangeNumberEntities(address _dfd, uint _maxNumber) public {\n        DidForDases dfd = DidForDases(_dfd);\n        //Change the number of Entities by Inter-Contract Execution\n        dfd.changeNumberEntities(_maxNumber);\n    }\n}",
  "sourcePath": "/home/perrin/Project/blockchain-developer-bootcamp-final-project/contracts/EntitiesNumber.sol",
  "compiler": {
    "name": "solc",
    "version": "0.8.10+commit.fc410830.Emscripten.clang"
  },
  "schemaVersion": "3.4.3",
  "updatedAt": "2021-11-30T05:38:02.508Z",
  "networkType": "ethereum",
  "devdoc": {
    "kind": "dev",
    "methods": {},
    "version": 1
  },
  "userdoc": {
    "kind": "user",
    "methods": {},
    "version": 1
  }
}